:020000040000fa
:080000000001040000000000f3
:020000040000fa
:100200000fa8200000ff200000018800000000006f
:100210000c000700008222000100200011000700ee
:10022000000020000000e000020032000000020098
:1002300000000000ac260200000000000040da00d0
:100240000000fe004440a900c01e20000000e000a5
:100250000300320000002000a00188004440a800f4
:100260000000060091018800800078000000eb008b
:1002700015003700e280400032a0b4009101ba00be
:10028000e280400032a0b4009102ba00e280400057
:1002900032a0b4000002eb00472bde00f507b200ed
:1002a000602ce10004003a000059eb008301e900f2
:1002b000fdff3e00040037006128e100010032002c
:1002c0000082eb00040007001101ba000200e00008
:1002d000e8ff3a00000006003159ba008301e90046
:1002e0000c0032002159ba008301e90008003200f5
:1002f0000400e00003003a00e280400032a0b400b5
:10030000f5ff370011d9ba008301e900faff3a007e
:100310008100e800e180400032a0b4000000060047
:1003200000000000000000000000000000000000cd
:1003300000000000000000000000fe000000eb00d4
:10034000870b3700c1832000200007000000e00079
:1003500006003500c1832000a000200061000700d6
:100360008000eb000000e00001003d008080eb0019
:100370000100780000000600889fbe00800478001d
:100380000100780002047800890178001100200043
:100390007a000700880f5000010032008004eb0053
:1003a000090078004f04be00000006000000fa00bb
:1003b0004fb99700e8815700c1832000c01b20007f
:1003c000c30007000080fa0000000600889fbe00fe
:1003d0008a9fbe0000057800810478002d00370058
:1003e000c900900069009000808f5000040039001f
:1003f000090078006f0107000000e00035003500bb
:10040000004020001900600009003200a100200017
:100410000a007800aa010700800578000000e000cb
:10042000040032000a0050000004e8000400370015
:10043000800578000a007800ac010700000478000d
:10044000c90190006900900003005000880f50001f
:1004500002003100000478008005eb0008017800fc
:100460008a00780003007800a7010700080545000e
:100470004900900000004400c00498000b00e00018
:100480000400320009007800a60107000000e00027
:1004900010003a001a04e000d1ff3a00008020006a
:1004a0001900600004003200090078009d01070077
:1004b0000000e00007003a0000c0200019006000c2
:1004c0000500320049009000e00498000000eb00b5
:1004d000010037000080eb004f05be004f04be0056
:1004e00000000600889fbe008a1f78008004780004
:1004f0000104780000457800c10090006800900079
:10050000808f50000400390008007800290107009e
:100510000000e00015003500480090000958780000
:10052000400498001800780000b8a30004003a00c6
:1005300000a8a30006003200ea4f550004003a006c
:1005400008007800770107000000e00007003a008b
:1005500000c0200018006000020032004800900037
:10056000600498000a80fb00010037000080eb0067
:100570004f0578004f04be0000000600889fbe00b3
:100580008a9fbe008c9fbe008e1f78008106780077
:1005900083047800000678000288b900000778001c
:1005a0000000e00002003a0000017800420037003d
:1005b0000d00e0004000320000057800c900900006
:1005c00069009000808f5000040039000900780015
:1005d000f80007000000e00029003500004020007e
:1005e0001900600003003a000a04780080057800d2
:1005f0000b0037000a017800a10020000c007800f1
:1006000085010700800578000000e00002003a0044
:100610000a047800020037000c0050000004e800d3
:10062000c90190006900900003005000880f50003d
:1006300002003100000478008005eb00080178001a
:100640008c007800030078002f01070008064600a0
:10065000080555004900900000004400c0049800bf
:100660000b00e00004003200090078002d010700b3
:100670000000e00002003a000a00e000cfff3a006c
:10068000008020001900600002003200090078009c
:100690002401070000c020001900600002003200a1
:1006a00049009000e00498000a005700110009007a
:1006b0000d80d80000017800020078004f07780014
:1006c0004f06be004f05be004f04be0000000600ee
:1006d0006200fa00889fbe008a9fbe000004be0030
:1006e000020578008300780060f92f000f004000b9
:1006f0005301070088979f0099979f000000eb0027
:10070000a09f9f009a4578000b80fb000000ea0044
:10071000cf04de0050c2b30080cf5500020032008b
:1007200009047800010037000904e9000800e0002e
:100730000b0034001f909700080178008a007800b1
:100740008f9197000300010090979f000000e00048
:10075000930032002f98970000004400a09f9f0054
:100760000905450050c2b30080cf55000400320097
:100770000b04e000e3ff3a002f9897008900370050
:100780000000eb00809f9f00f0979f00e0979f0084
:10079000d0979f00c0979f00b0979f00c09f9f0079
:1007a0000900370040932000008050000000400006
:1007b00081922000e10078004f98970001007000be
:1007c000c09f9f000a05e8001a4478008800fb00db
:1007d000409320001f010700800078000000e00027
:1007e000f0ff3a00a0c2b300804f54000e003a0060
:1007f000bf8897000180e900b08f9f00100078004b
:10080000b09f9f000000e00005003d000000ea00ee
:10081000b09f9f004f9897000020a000c09f9f00ae
:100820000a05e80010003700b19f9f0003fd2f006c
:10083000f4ff2700080037003f989700840f50000e
:10084000040032006a00b9000000410003004000cb
:10085000b09f9f000a05e8001a01fb000300410059
:10086000e90f5000f4ff3600e0c2b3009a4f1000c9
:10087000040032000080eb00909f9f008a04780003
:100880001c0037008a04e800a0c2b300994f100092
:1008900007003a00bf8897000180e900b08f9f00f1
:1008a00010007800909f9f008a84e80011003700b4
:1008b0000000eb00909f9f0003fd2f00f4ff270036
:1008c000080037001f989700840f50000400320082
:1008d0006a00b9000000410003004000909f9f00a3
:1008e0008904e8001901fb0003004100e90f5000f2
:1008f000f4ff3600194478008800fb00a093200024
:10090000d40007000000e00002003a000044780034
:10091000010037008904e800a87f9f0080c6b3006b
:10092000804f540004003a00994f14000a003a0026
:100930006640500006003700c0c6b300804f540028
:1009400005003a00994f140003003a00654040004a
:10095000a07f9f008904e8000905e800c8fb2f007c
:100960000f04440060f92f000f0040008085e8006c
:100970008801780019417800800078000b00780029
:10098000bd0007000000e00005003a008800780084
:100990000b007800350207000000e00059ff3d0021
:1009a0000080eb004f05be004f04be000080fa003f
:1009b00000000600889fbe0000047800c00190007f
:1009c000600090008000eb00808f510039003900fa
:1009d000180178002000290000006100e20f50009b
:1009e00007003200002020000200e0000100350076
:1009f00000202400000c71008080eb002d003700e7
:100a00000100260001006100810f500008003a003b
:100a100038009000808f51000500390008007800f0
:100a2000400007008080eb000000e00021003a0059
:100a300000c020001800600017003a00a8049000d1
:100a40006002200008004000808f540012003a002d
:100a500000202000cf0207008000780020049800ca
:100a60000000e00005003a002904980049049800bd
:100a70000900e80030049800060037001860a00064
:100a8000400498000020b00030049800410c980009
:100a9000510c9800110307002800900050049800a2
:100aa000380090006004980000002600180c7000c8
:100ab0008000eb00010078004f04be00000006003b
:100ac0008001eb0010417800814f510001003a0095
:100ad000800178000204e000020032000000e8001b
:100ae000f8ff37000300780000000600800078005f
:100af000010037000000e8001004e000fdff3a00ac
:100b000001005000000006008001eb0002003700e9
:100b100061f079008301e800828f5100fcff3a0008
:100b200000000600889fbe00000478000000e0007e
:100b30000e003a00800478004880200018007800f9
:100b40000000e00004003200f6ff07000000e000b3
:100b500001003d008084eb000884e8004081200013
:100b6000800f540029003200f4ff370000002200fb
:100b70001800600024003200a8049000080037002c
:100b800009015000384090000000fb008900780007
:100b90007f0907000000e000130034008084440057
:100ba00048009000808f5400f5ff39002800900025
:100bb000400498001801780000c020000000610087
:100bc00002003200a800900001003700b800900039
:100bd00000002400000061000a0032006104980057
:100be0008004eb00090037002800900040049800c2
:100bf00060049800500c98001890a0008084eb00ce
:100c000002003700510c9800800478000900780039
:100c10004f04be00000006008001eb000400370016
:100c20008301e80090cf1000040032000000e800cb
:100c3000828f5100faff3a000000eb00000006002e
:100c40000200fa00f1bf9f00010878000080fa005e
:100c500000000600040037000204e00001003a0032
:100c6000000005000000e80010417800814f5100ad
:100c7000f9ff3a0000000600889fbe008a1f780036
:100c800000047800010278008244780003057800af
:100c900070c6b300804f510021003c0000c0e90045
:100ca000804f5100de003d0072405000804f5100e7
:100cb0004b0132000d003c006c405000804f510051
:100cc0005e013c0000c0e900804f5100d4003d00af
:100cd00050c2b300804f5100550132007c404000ab
:100ce000804f510055013a00cd00370010c6b300c7
:100cf000804f5100ca00320004003c00694050009f
:100d0000804f51004d013a007200370030c6b300e9
:100d1000804f5100180032000040e8000900370001
:100d200000c7b300804f51001e01320008003c0094
:100d300000c0e900804f5100e400320065003c0033
:100d40006540500080cf54003c013a000f0037004e
:100d500050c7b300804f51005e0032006340400036
:100d6000804f51005b00320065405000804f5100c1
:100d700032013a001a0137009180e900010a780037
:100d8000780090009171780032013700a8609000df
:100d9000c0c6b30080cf50000a003a00940078002b
:100da00064805000000a78001000be004f89de0009
:100db000cf91de000002be000203780082037800bb
:100dc0001300370010c7b30080cf5000030032007b
:100dd000a0c6b30080cf500006003a00940078000f
:100de00068805000000a78003002be002003be0078
:100df000070037001480e900000a7800100078002e
:100e000000027800cfa2de00050378008603780098
:100e1000049cbe000694be00a860900080c6b3008b
:100e200080cf50000e00320020c6b30080cf5000ab
:100e300005003a000400fb00cf80de0001017800cd
:100e4000820178000a00370040c7b30080cf50000d
:100e5000030032006640400080cf500006003a0098
:100e600004007800cf80de00010178008201780064
:100e7000009cbe000294be003800be002801be00e7
:100e8000e00f5000e08f5800e00f5900e08f59004c
:100e900003003d0078009000d1c2b3000a00370083
:100ea000081090000018a3000300320078009000a2
:100eb000b1c2b300040037000008a30053003200a1
:100ec0007800900001c2b300017578000000e800ce
:100ed0004d003700a8609000c0c6b30080cf50001e
:100ee00006003a009400780064805000000a780000
:100ef0001002be006033b8001300370010c7b30003
:100f000080cf500003003200a0c6b30080cf500055
:100f100006003a009400780068805000000a7800cb
:100f20003002be002003be00070037001480e90035
:100f3000000a780010007800000278000500200008
:100f40000600200007002000049cbe000694be009e
:100f5000a860900080c6b30080cf50000e00320021
:100f600020c6b30080cf500005003a000480fb008b
:100f70000100200002002000030020000a003700ca
:100f800040c7b30080cf50000300320066404000ed
:100f900080cf500006003a000400780001002000d5
:100fa0000200200003002000009cbe000294be004e
:100fb000081090000038a300140032003800be0072
:100fc0002801be00e00f5000e08f5800e00f5900ec
:100fd000e08f59000d00320080c7b30080cf54006d
:100fe0000300320080c5b30080cf540007003a00f0
:100ff0007800900001c3b300017578008000e8001c
:1010000009f578000080e8007004980078009000ee
:101010000000450060049800894078006d003700aa
:10102000a8609000c0c4b30080cf500006003a0012
:101030009400780068805000000a78005001be00db
:101040004000be0005003700940078006480500026
:10105000000a78001000be00100a0700009cbe00c5
:101060000294be00380090000000e00003003d0044
:1010700078009000d1c2b3000a0037000810900039
:101080000018a3000300320078009000b1c2b30042
:10109000040037000008a30005003200780090002b
:1010a00001c2b300017578000000e80070049800e8
:1010b00078009000000045006004980089407800a6
:1010c00008007800dd01070064003700a860900088
:1010d000c0c6b30080cf5000250032000a003c009b
:1010e0006440500080cf50002800320000c0e8006b
:1010f00080cf5000140032006840500080cf500074
:1011000022003a000a00370040c7b30080cf5000e9
:101110001e0032006640400080cf50001b003200ad
:101120006940500080cf500018003a000600370098
:101130001480e900000a780010007800485c9000f4
:1011400008487800450037001480e900000a78005c
:101150001002780068089000cf80de00010178005e
:1011600082017800009abe000292be003b00370068
:101170001480e900000a78001001780068089000e7
:10118000cf80de000089be00340037001480e90003
:10119000000a780010007800680c900008087800b9
:1011a0002e0037001180e9008008780010007800d8
:1011b000cf80de000101780082017800009cbe0033
:1011c0000294be0078009000000045006004980082
:1011d00081c7b30008007800c10307001f00370073
:1011e0001480e900000a780010007800600498007c
:1011f000580990000200e00002003d003bfe07009d
:10120000090037008000eb0083fe070080007800b3
:101210000000e000030032006800900000805000f1
:101220000100370058089000100c98000b003700a0
:101230007800900002757800060037007800900072
:10124000800045000904e00001003a0059c2b300e3
:10125000894878000000e800700498000000eb0066
:101260004f0578004f04be00000006000400fa009d
:10127000889fbe008a9fbe008c1f78000004780003
:101280000106780070089000f800900001005000fe
:10129000880890000100500098089000010050005c
:1012a000a808900001005000b8089000010050000c
:1012b000c8089000810550000002220090bf9f00e6
:1012c00000032300a0bf9f00081090000028a30087
:1012d00018003a000b00e000160034008b04780080
:1012e00009057800e28f5400020036002a00200031
:1012f000020037000900e0000b00340058009000a5
:10130000c80190000a017800ee8057000300010038
:10131000500498000000e000960032006808900039
:1013200000004500600c98008a8454004240a900e7
:10133000ebff3c00780190000200e0000b0034005d
:1013400058009000c80190008c0078000300010054
:10135000500498000000e000860032006808900009
:10136000f800900001004000600c9800880c90008c
:101370000900e0001500340009057800e28f5400f0
:10138000020036002a002000020037000900e000b9
:101390000b00340058009000c80190000a0178004a
:1013a000ec80570003000100500498000000e000aa
:1013b000700032006808900000004500600c980042
:1013c0008a8454004240a900ebff3c0018099000b9
:1013d0000200e0000b003400e8009000580090008c
:1013e000c801900003000100500498000000e000d4
:1013f00060003200680890009808900001004000ea
:10140000600c9800a80c90000900e0001500340062
:1014100009057800e28f5400020036002a002000ff
:10142000020037000900e0000b0034005800900073
:10143000c80190000a017800ec8057000300010009
:10144000500498000000e0004a0032006808900054
:1014500000004500600c98008a8454004240a900b6
:10146000ebff3c00380990000200e0000d00340062
:10147000e80090001808900080804000580090001c
:10148000c801900003000100500498000000e00033
:101490003800320068089000b80890000100400051
:1014a000600c9800c80c90000900e00015003400a2
:1014b00009057800e28f5400020036002a0020005f
:1014c000020037000900e0000b00340058009000d3
:1014d000c80190000a017800ec8057000300010069
:1014e000500498000000e0002200320068089000dc
:1014f00000004500600c98008a8454004240a90016
:10150000ebff3c00081090000028a3001b003200f5
:101510000b00e000190034008b0478000905780006
:10152000e28f5400020036002a002000020037003b
:101530000900e0000b00340058009000c801900042
:101540000a017800ee805700030001005004980063
:101550000000e0000700320068089000000045002d
:10156000600c98008a8454004240a90003003400b3
:10157000eaff37000080eb00010037000000eb00bd
:101580004f0678004f05be004f04be000080fa00f1
:1015900000000600889fbe00e30440000900a1008f
:1015a000808f54004a003600e38f540001003e0053
:1015b00049002000224a80000200e00002003200c0
:1015c000820078000c00370061942000030037008f
:1015d000908f5400230036008080e80011007800ce
:1015e0000000e000faff3a000f003700908f54002f
:1015f0001c0036008080e800110078000000e00048
:10160000faff3a00120178006194200003003700cd
:10161000908f5400130036008080e800110078009d
:10162000820f5000faff3a00184a8000890f5400d8
:101630000100310009047800080078003104070037
:101640000000e00004003a00890f5400200032003e
:101650000804d100f5ff37000818780030040700af
:10166000d4ff3700110178009201780064805100a6
:10167000890f5000030031001200900080087800ac
:1016800007003700090041008008780092019000af
:1016900013009800110078001288140009097800de
:1016a000910078000100e000050032001100900078
:1016b0000000e000020032000180e8000100370075
:1016c0000000eb00204a88000280e800010037009b
:1016d0000000eb004f04be0000000600881f7800e9
:1016e000889420001804e00004003a0060c0200044
:1016f0003f04070020c0b300004c78004f0478007e
:1017000000000600889fbe000004780005fd070069
:1017100080047800000420001800600002003200fd
:1017200028009000fe0307000000eb002004980052
:10173000384090000004e000050035000000fb0088
:10174000c70607000000e000010032008084eb00c3
:10175000181090000000e00008003200c9060700e1
:101760000000e000010032008084eb0018109000bf
:10177000eb0307000000eb001014980000082000a5
:1017800018006000100032000000eb0041802000d3
:10179000910f1400070032000000e8008180e8008b
:1017a000e80f5000faff3a0008007800dc03070059
:1017b00013003700000140008000eb004080200053
:1017c00001307900f8ff3700000c780000c0eb0012
:1017d0003044980060022000080040002004980077
:1017e0004004980050049800400c98006004980051
:1017f000500c98007004980076004400000c98008b
:10180000090078004f04be0000000600881f780021
:1018100028812000180078000000e000010032005c
:10182000b8ff07000884e90020802000800f5400e2
:10183000f8ff3a004f047800000006008f04b00063
:10184000889fbe008a9fbe008c9fbe008e1f7800be
:10185000f0b79f0081f79f005001be004000be001e
:10186000f0979f00819f9f00929f9f00a39f9f00e2
:1018700010c6b3000ff19700804f510016003200e0
:1018800010c4b300804f510013003200ffb1970025
:10189000530890000000e00003003d0060002000bd
:1018a000d00998000c0037000000e0000a003a0060
:1018b00070c6b3000ff29700804f52000300320051
:1018c00070c4b300804f520003003a0010002000a3
:1018d000ffb29700d00a9800ffb09700c0fa2f001f
:1018e0000f004000cf03070080017800e20f500096
:1018f00015003a0030002000ffb0970090089800d3
:1019000010c6b3000ff19700804f51000a0032005b
:1019100064404000804f5100070032000040e80062
:10192000804f510004003200418d20000040e8004b
:10193000804f510001003a00818d2000ffb19700d7
:1019400063009000160037000000e000180034002b
:10195000300020007fb29700100a980010c6b30034
:101960008ff2970080cf52000a003200644040009e
:1019700080cf5200070032000040e80080cf5200c4
:1019800004003200c18d20000040e80080cf5200ea
:1019900001003a00018e20007fb1970062009000a4
:1019a000315878003158780011487800c601370066
:1019b00014c6b3008ff2970084cf520003003200a8
:1019c00010c4b30080cf520013003a007fb09700dc
:1019d000600190008200780000c3b3008058780056
:1019e000ffb29700e102980080c7b3008ff2970022
:1019f00084cf52000100320080c5b30080487800d7
:101a00000280e800ffb09700e000980071009000ad
:101a10000080e800f00098000300e00005003a00b4
:101a2000e3979f0064fb2f000f014200030778003b
:101a3000a0013700458e2000e5b79f0010c6b30017
:101a40008ff0970080cf50000500320010c4b30023
:101a500080cf5000a7003a00528f2000e2b79f00cd
:101a6000ffb19700530890001e0220000000e00024
:101a7000010035000007e8000e02e800d4b79f001f
:101a80006022b8006033b8007f9097008f9897006d
:101a90001f999700af9997009f070700ffb0970025
:101aa0003102be002103be000000e00004003d0042
:101ab0000400be000601be0003f0a20002003700d1
:101ac0000400be000601be00f0979f00819f9f00aa
:101ad000929f9f00a39f9f006f9197006401510008
:101ae000e2979f00c3fa2f008f8141006a80410076
:101af0000048eb006b824100c4b79f003100370003
:101b0000c201200003002000e5fa2f000f804200f0
:101b1000700307007f9497008f9c97001f9d97008c
:101b2000af9d97000800be000a01be007f070700b6
:101b30000006be005fb1970067015100d2b79f0059
:101b40004240a9000a003400a40707000002be00ba
:101b50000203be000800be000a01be00a207070083
:101b6000f0979f00819f9f00929f9f00a39f9f00df
:101b7000cfb1970067804100710020000500370059
:101b80006f6066004c6add004466de000c06720081
:101b9000c4eede00e00f5600e08f5e00050034006a
:101ba0008100e900e18f4000f5ff3a0001003700b5
:101bb0000060eb008100e900fdff3b006700400092
:101bc000c0b79f00dfb297000500e00009003400b5
:101bd0006022b8006033b8007f9097008f9897001c
:101be0001f999700af999700810707000000e00058
:101bf000c3ff3c0060fb2f008f0040004fb19700f7
:101c0000010051000000e9008e0f500001003d006e
:101c1000000778000e00e00003003d0073fb2f007a
:101c20000f8141002c003700800f570005003d0058
:101c30000e80400010409000f3c0b300e74f50000a
:101c400001003c008041eb00c4fa2f000f0242006b
:101c50000e0042006a0040008e007800010037004c
:101c60000000e9008100e90010417800834f510035
:101c7000fbff32000107e800efcf510001003a00fe
:101c80000248e8000100e0000300350075fb2f006a
:101c90000f814200060037000e07e8006f909700a2
:101ca00064004000e0979f0061fb2f000f8140001f
:101cb0008e0041008e017800030037001100fb0008
:101cc0006fb29700e44878008301e9008100e900e1
:101cd0000300e000f9ff3d00ffb2970055089000b7
:101ce0000000e000f3003d000e00e900d00a98007b
:101cf000f00037007f9497008f9c97001f9d9700fe
:101d0000af9d97006022b8006033b8000800be00a5
:101d10000a01be00000707000000e00005003d00ca
:101d20000bf0a200f8979f00899f9f009a9f9f0049
:101d3000ab9f9f006f909700725927000280b900f7
:101d4000026a2800130020002e070700e40050005c
:101d5000e1979f0015003b00e3801000c0ff2f00bb
:101d6000008460000800ea00e0979f007f909700e1
:101d70008f9897001f999700af999700c988200006
:101d8000070037000808a300030032003902be0034
:101d90002903be002a0707000884d100e884440014
:101da0000800e000f7ff3c001b0037000100e000e6
:101db0001d003400c0ff2f0000806000e0979f00ee
:101dc000000478006000b8000200200003ff230038
:101dd000c9882000070037000808a300030032006c
:101de0003902be002903be00150707000884d10090
:101df000e88444000800e000f7ff3c000002be0059
:101e00000203be007f9097008f9897001f9997005c
:101e1000af9997007f070700f0979f00819f9f0071
:101e2000929f9f00a39f9f00ffb0970051099000d1
:101e300060c6b3008ff1970080cf510004003200dc
:101e40006100200060c4b30080cf510002003a005e
:101e50006f929700ea00420001074100f30f57001c
:101e6000010034003e01200000c3b300e0779f0072
:101e700075fb2f008f824200b5b79f0033003700fb
:101e80000800be000a01be00a80607000006be004a
:101e9000680757004240a9000e003400cf06070033
:101ea0000002be000203be000800be000a01be0020
:101eb000cd0607006022b80046782d00771924006f
:101ec000df060700f0979f00819f9f00929f9f0071
:101ed000a39f9f003fb09700680440008900200046
:101ee0000d003700a4002000050020000c01be00fa
:101ef000e0fd2f000f004000f10207007fa89700cf
:101f00008fb097001fb19700afb1970004c3b30023
:101f1000046441000006be00e00f5600e08f5e0042
:101f2000060034008904e900e18f4400edff3a0027
:101f30000200370000c3b300006478008904e900a0
:101f4000fcff3b0068044400b8b79f000e00e000af
:101f50000b0034007f9497008f9c97001f9d970083
:101f6000af9d97006022b8006033b8000800be0043
:101f70000a01be009e0607000000e000c0ff3c0012
:101f8000c5fa2f008f8242006a804200bfb09700de
:101f9000008050008001e9006f919700e700410048
:101fa0006b81420000c3b300010037000201e8006a
:101fb000924f1000fdff320074fb2f000f00420013
:101fc000808040008280500000804100020250006a
:101fd000e1979f00ffb29700d509900060c6b3005b
:101fe0008ff2970080cf52000300320060c4b3002c
:101ff00080cf520002003a008100e8000a0037005a
:1020000050c6b3008ff0970080cf5000050032001b
:102010008000eb0050c4b3008ff2970080cf5200d5
:1020200001003a0011002000018741008e0f52008c
:1020300001003d00040778000e00e0001d0035009f
:10204000840f570005003d00e2407f0095c3b300b8
:1020500040c3b30080cf500001003c0005c3b30073
:102060000e0041008000e9008e0178000100370079
:102070008100e9008301e90011427800854f520098
:10208000fbff32000307e80090c3b30080cf52008b
:1020900001003a008448e8000300e00005003d002c
:1020a0000201e9000e07e8006f9097000000e800c9
:1020b000e0979f006f9297008e0178008ff0970055
:1020c0007fb097009b0207004f0778004f06be00c5
:1020d0004f05be004f04be008f04b1000000060093
:1020e0002f03b000889fbe008a9fbe008c9fbe0059
:1020f0008e1f78000007780070912000c0b79f0005
:1021000080c5b30080cf50000800320062902000ec
:10211000c2b79f007740400080cf500003003a00d4
:1021200083002000b3b79f000a00370080c7b300c8
:1021300080cf500005003200a4002000b4b79f00fb
:1021400080c5b30080cf500002003a000501200096
:10215000b5b79f003e04be002e05be0040c6b300ca
:1021600080cf5000030032006540400080cf500017
:102170000b003a00e00f5400e08f5c00e00f5d00c0
:10218000e08f5d0006003d006000b8006011b800ff
:1021900008045000898458000a0559008b855900ad
:1021a000bfb39700e88f530003003200f08f530055
:1021b00045003a00020037003600200001003700d9
:1021c00046002000e00f5400e08f5c00e00f5d004f
:1021d000e08f5d0005003a005e089000810120005c
:1021e000a1b79f000000e000080032003fb1970057
:1021f0000200e90008006000cfb19700634078005a
:1022000090df9f0074012000a4b79f008602780031
:102210008502e900050033008b05d1000a85d30053
:102220008984d3000884d300f9ff3700089fbe00db
:102230000a97be00afb397000700e90021fc2f000a
:102240008f804000008240003fb197008202e90089
:1022500012003700afb397008703e900a7b79f00cc
:1022600000806200cfb09700615278003e00be004f
:102270002e01be00860378008703e90005003300c5
:102280008381d1000281d3008180d3000080d300fc
:10229000f9ff3700009fbe000297be003e00be005f
:1022a0002e01be00e00f5000e08f5800e00f5900f3
:1022b000e08f5900d6003400afb397000700e0006c
:1022c000e4ff3c00d2003700ae60900080c6b3004f
:1022d00080cf50000b00320006003c000104e000fb
:1022e000080032006640500080cf500073003a0072
:1022f00004003700c0c6b30080cf50006f003a0022
:1023000031003700080178000800e00005003a00bd
:102310005e08900081012000a1b79f000000e0004e
:1023200009003200bfb19700110009000381d800f5
:102330008000fd004fb297006440780090df9f005e
:1023400075012000a5b79f00bfb3970011000900d9
:102350000781d80080017800afb097000100e90044
:1023600022fc2f000f014100000241000c00370049
:10237000bfb29700110009008501d8000001780064
:10238000afb397008703e900a7b79f000590b90096
:1023900000805100cfb09700615278008201780030
:1023a0000300e000030034002fb197000200e000ba
:1023b000efff3c0003007800cf80de0001017800d1
:1023c000820178003a0037000806be00e00f540092
:1023d000e08f5c0005003a005e0890008301200059
:1023e000a3b79f000000e000090032003fb2970051
:1023f0006121b9000c00be0060060700cfb2970053
:102400006540780090df9f0077012000a7b79f000c
:102410003fb297006121b9000c00be005a060700c8
:102420000006be00afb297000500e90027fc2f00b0
:102430008f8343008083430097b79f0011003700cc
:102440003fb197006114b9000801be000c00be0046
:102450006c0507000005be00afb197008301e900dd
:10246000a3b79f000801be00b40307000000560098
:102470001fb29700cfb297006552780094b79f00c3
:102480000a06be00e00f5600e08f5e000300340035
:10249000afb397000700e000e9ff3c004feade0021
:1024a000cfa2de000c00be00040178008401780099
:1024b000009fbe000297be0055003700e00f540099
:1024c000e08f5c00e00f5d00e08f5d0005003a00ea
:1024d0005e08900081012000a1b79f000000e0008d
:1024e0000d0032003fb1970002027800cfa2de005b
:1024f00005037800860378000800be000a01be00cc
:10250000b20607004fb297006440780090df9f004a
:1025100075012000a5b79f003fb197000202780027
:10252000cfa2de0005037800860378000800be0015
:102530000a01be009e060700009fbe000297be0073
:10254000afb197000300e90024fc2f000f02420006
:102550000006420020003700bfb297000504780053
:10256000cfc4de00090578008a0578000802be00a5
:102570000a03be005fa89700efa897007fa9970005
:102580008fb1970095060700d0b79f00e1b79f0075
:10259000f2b79f0083bf9f00afb397008703e900a6
:1025a000a7b79f000802be000a03be00110707007c
:1025b0005faa970000005200cfb2970065567800de
:1025c0005fb09700efb097007fb197008fb9970089
:1025d000009fbe000297be003e00be002e01be005e
:1025e000d0af9f00e1af9f00f2af9f0083b79f0085
:1025f000e00f5000e08f5800e00f5900e08f5900c5
:1026000003003400afb097000100e000d2ff3c00af
:102610003fb19700e80f510013003a000e109000f0
:102620000038a30010003200afb19700f78f5100bf
:1026300006003e0024fc2f000f024200e4c0790097
:1026400000c3b30080cf500007003200afb2970044
:102650008502e900a5b79f0000c3b30027fc2f0047
:102660008f83430080f37a00afb197007881110027
:10267000120f98006e00900024fc2f000f02420001
:102680008300420020f907001e0990005e089000b8
:10269000800f510006003d0002005000000f98001e
:1026a0000e1090000040a100001798000f003700a6
:1026b0000000e0000d003d000e109000740060006e
:1026c000f00f500009003a007e089000fe009000d4
:1026d000010050008e0890000100500002005000e0
:1026e0004240a90001003400000f98004f07780015
:1026f0004f06be004f05be004f04be002f03b100c1
:10270000000006000000e00003003400e6020700bd
:10271000e10f400001003a000000eb00000006005d
:102720000000e000310032008080e9009102780072
:10273000e38f52002d0036000508a3002b003a005d
:10274000324a80000200e00002003200828f500016
:102750000400310002087800314a88001600370072
:1027600003017800920190000300e00002003200b3
:10277000818f5100faff39001202780004004100f5
:10278000808f500019003900810f500003003a007b
:102790000509420082007800070037000300e000ce
:1027a0000300320005804000808f51000f00390087
:1027b0009300980011019800110190000200e000c0
:1027c0000a00320011804000820f500007003a00da
:1027d000409420000008eb001100900011017800e7
:1027e0009008410010009000900098000000060042
:1027f00000017800000020000000e0000800320026
:10280000000080000000e000050032000000e90048
:1028100000008800000040000100800002b0780045
:1028200000000600889fbe00800478006684400097
:1028300000ff2700180060004401de00f07f200048
:10284000800f51000e003a00800ceb001804780055
:102850006f0064001c003a00210090000000e000be
:1028600019003a00110090000000e00016003a0044
:10287000100020001100e0001400320012003700a8
:102880000200e00005003c0001007800dd010700c7
:10289000000178000000e00008003c00f000280083
:1028a0001800600001fe2300010c700020c02f0002
:1028b000800c41000080eb0004003700800ceb002e
:1028c0000000eb0001003700200020004f04be0094
:1028d00000000600889fbe008a1f78008c9fbe0003
:1028e000000478000206be00e604400019017800ea
:1028f0000200d0004505de008a007800f07f20004d
:10290000800f55000c003a006f00610067003a002c
:10291000280090000000e00064003a0018009000d9
:102920000000e00061003a00100020001800e00004
:102930005f0032005d0037000a00e00007003a0047
:1029400008007800af010700800078000000e00078
:10295000020034000a007800550037006108b90011
:102960000c0140008d814800e07f2000800f510065
:10297000e08f59000d0034001900e00004003d0014
:102980006000b8000200200003ff2f0003003700a2
:102990006000b8000200200003ff2700009cbe007a
:1029a0000294be001000200041003700e00f5100eb
:1029b000e08f590005003400f00028001900600085
:1029c000c410dd00810c700036003700190078005b
:1029d00001002800010360006f0060000040a000bb
:1029e000800c780061015100e0815900c0fc2f008b
:1029f000f1ff2f00800f5100818f590006003d002c
:102a0000860c78000000eb00200498001004980069
:102a1000000c780026003700020078000881e800ea
:102a2000e400440005003700120c7800110978001a
:102a300099087800800ceb0070004000f00f400017
:102a4000f9ff34008002ea00150032008881e800b6
:102a500070821200980078008508de00130078006c
:102a60000400dd00008c70006401440093007800d5
:102a70008508de00120078000400dd008089700007
:102a8000920078008508de00190078000400dd005f
:102a900000897000190078000500de00800c7800c5
:102aa000990c73000080eb0001003700200020002b
:102ab0004f06be004f0578004f04be000000060020
:102ac0000400fa00889fbe008a9fbe008c1f780019
:102ad0000006780092bf9f00a3bf9f000404be00c1
:102ae0000401be001fb89700afb89700c5030700e8
:102af0000005be000001be000800be000f02070076
:102b00001fb99700afb997000000510081805900ac
:102b100020069800310698000a8ebe000c0078004e
:102b20004f0678004f05be004f04be000080fa003b
:102b3000000006000e00fa00889fbe008a9fbe00bb
:102b40008c9fbe00000478000145780002067800e2
:102b500083047800840678000300e00002003c0053
:102b600019002000cc94200060c6b300804f5500af
:102b70000e00320060c4b300804f55000b003200dd
:102b800070c6b300804f55000300320070c4b3001c
:102b9000804f55009c003a00e48f460080003500cd
:102ba00058089000808f56007d003d008d05e8009c
:102bb00060c6b300804f55001000320060c4b300ff
:102bc000804f55000d003200081090000038a3001f
:102bd00004003a0058089000808f540001003d0026
:102be000590c9800580890000b005000500c9800a9
:102bf00002003b000000eb00500c98000b00e000ce
:102c000027003c00180990006800900001c3b30041
:102c1000017079008201e800130c980058089000b8
:102c20000000e00003003c00081090000038a30002
:102c30000500320068009000e1c2b30001f07900a5
:102c40000280e800100c9800d80890000b00ea0001
:102c5000808f500001003d008105ea000b00ea0072
:102c6000200c980001804500500c9800890f5000fe
:102c700001003d0080047800390c98006800900045
:102c80009808900001004000090178008c0078004d
:102c90009df7070058089000090050001a003700ff
:102ca00098089000680090008b8f540018003d0039
:102cb00001004000090178008c00780092f70700bd
:102cc0001808900000814400120c980009805500fb
:102cd000200c9800580890000000e00003003c0021
:102ce000081090000038a30006003200e8009000b1
:102cf000e0c2b30080707900380890000000e8005e
:102d0000300c980058089000400c9800a60037003e
:102d1000010040000b0178008c0078007af7070072
:102d20001808900000814500120c98008b84540014
:102d3000580890000000e00003003c0008109000dc
:102d40000038a3000500320068009000e1c2b30023
:102d5000017079000200e800100c980058089000fb
:102d6000890f500001003d00800478006800900049
:102d700098089000010040008b004600090178008f
:102d800061f707001808900000804400100c9800bc
:102d90005808900009005000200c9800820037006d
:102da00070c6b300804f55000300320070c4b300fa
:102db000804f550014003a0058089000808f54004e
:102dc00004003d00081090000038a30001003a0004
:102dd000590c9800580890000000e900500c980029
:102de00002003b000000eb00500c980070c6b300de
:102df000804f550002003a005ac6b3000b0037005e
:102e00005ac4b3000900370010c6b300804f550004
:102e100002003a000ac7b3000400370010c4b30030
:102e2000804f550001003a000ac5b3001809900010
:102e3000680090003c7079008201e800130c980053
:102e40000c027800580890000000e00003003c00ed
:102e5000081090000038a30017003200e80090002e
:102e6000e0c2b30080f079008280e800110c980085
:102e7000580890000000e0000f0034008904e900c9
:102e8000890f500001003d00800478006800900028
:102e90000080400009017800840078001af70700dc
:102ea0001808900000804400100c9800580890000a
:102eb00009005000200c98006800900098089000cd
:102ec000010040000086e8000a5878008000780081
:102ed0000d00e00004003500b0c2b3008048780067
:102ee0008c04780004003700d0c2b300804878001a
:102ef0008c0478008d06ea008005eb000a0037009c
:102f0000a20020008d007800708057008900070023
:102f10000fb897009fb897007a81550001f17f00a4
:102f20008b05e800800678000d00e000f4ff3c000f
:102f3000e18f550009003c0050c6b300804f55009a
:102f40000300320050c4b300804f550003003a0024
:102f500000c3b300005e78008c0478000b00e00032
:102f6000040032000b00e900fa80570000804000a6
:102f70000600370000c3b300805c7800050037000e
:102f80008b05e90002c3b300a05c41000b00e00028
:102f9000fbff3c0068009000980890000100400092
:102fa00000805400300c98000810900074006000fd
:102fb000f00f50000e003a00780090009808900042
:102fc00001004000a808900001004000b8089000ef
:102fd00001004000c808900081004000780890007f
:102fe000808f500002003d0001005000000c98004e
:102ff0004f06be004f05be004f04be000080fa0021
:103000000000060000017800e6014000130078008f
:1030100001002800810360006f00600080097800d3
:1030200012003a00220090000000e0000f003a0079
:10303000120090000000e0000c003a001600200092
:103040001200e0003800320008003700e4004100c0
:10305000910978000280e800900878001208780052
:103060000009eb0070035300010037001600200038
:103070001300e000f5ff3200e40241000282e800a4
:103080001100370080004000150078004f00de007e
:1030900080897000950078008180400014007800dd
:1030a0004f00de00808a700094007800818040002c
:1030b000120078004f00de00008a700012007800d5
:1030c000000940000603e90013007800ef0f5000ec
:1030d000ecff36008282e800640241000e003700f7
:1030e0009200d100150078004f00dd0000897000cb
:1030f0009500d100140078004f00dd00808a700038
:103100009400d100130078004f00dd00008a7000a9
:103110009309d1000603e80013007800ff0f500068
:10312000efff3e00ef09600093897300060078000e
:103130000000060002027800809fbe001100090016
:103140008200d800000178004f00be0002a2b90042
:1031500084805000110098000208780000000600ea
:10316000000178001001e200030035001061a800a2
:10317000000028001021b7003008800041088000be
:103180000200e000010032000089be0000000600dd
:103190000a00fa0080017800e20f500025003e008e
:1031a000804a8000e10f500008003200e02120003a
:1031b0000000e0000500320064212000852120008d
:1031c000a62120008001780004003700c4202000e0
:1031d000e52020000621200043212000144090001b
:1031e0000004e000030035008009eb000000280027
:1031f000140a7000154090000028a30001003a0056
:1032000015a0a0008001eb000700370015409000da
:103210000008a300fdff320063c078000000fb003f
:10322000000b78008301e800828f5100f7ff3a001d
:103230000800370030002000b0bf9f00c3bf9f00d0
:10324000d1bf9f00e2bf9f006a80570000c0da0034
:103250006fb99700020078000080fa0000000600b5
:103260000a00fa0011002000b1bf9f00c0bf9f00fc
:103270006a80570000c0da004fb897000080fa005b
:10328000000006000a00fa0051002000b1bf9f00b4
:10329000c0bf9f006a80570000c0da005fb8970087
:1032a0000080fa0000000600889fbe0080047800bd
:1032b000904a80000000e00003003a001000070080
:1032c0000000e0000a003500904a80000900e0009c
:1032d00002003a000004780006003700000478007d
:1032e00009004000060007000000e00001003d006a
:1032f0000084eb00080078004f04be0000000600c8
:10330000800078000000e00004003a0040952000b2
:10331000904a880001017800060037000081eb0028
:1033200000a82000808f500002003e00914a8800d3
:103330000001eb000200780000000600020ab9005c
:10334000001bb9000200b800810042008100430068
:1033500000000600889fbe008a9fbe00010578001d
:103360000100e0000400350008003c000000e0001f
:10337000200032000500370060001000e0801800d7
:1033800002003b0001f02c001a0037000004be00d0
:103390006011b8006b0920000982cf0002003900db
:1033a0000882cf000441b000694252000e00320092
:1033b00008003b0082817100610164008904d10032
:1033c0000884d3008b05e8000442e800f9ff3a00c6
:1033d000050037000804440089844c008b05e9008f
:1033e0000442e900fbff3a00d90007000af0a700f9
:1033f00001f0a0004f05be004f04be000000060013
:1034000003f0a200889fbe008a9fbe008c1f780038
:10341000f5000700fc0033006450e1004f0032006b
:103420006420e1005200320003826c0007003b0080
:103430000905d0000306d000820f54000c065d0081
:10344000020039000200320089017800030678008a
:103450008582550004003d000003fd008103fd004e
:103460008502ea008b854200840f720002003b0057
:1034700060001000e08018006011b8000005eb004b
:103480007a28e1000a00390006007800c75ddd00f7
:10349000f707b200878075002d0037008281710028
:1034a0000a017800610560008180d1000080d300ae
:1034b0008502e900f9ff3b000604400087844800cc
:1034c00002003b0060041400e0841c000988a30093
:1034d000070032008a8171008281710061016400fd
:1034e0008904d1000884d3008b05e8001700370059
:1034f0000978a30013003a000b00e0001300340029
:103500008b05e9000804440089844c000a447400d7
:103510000978a3000d003a000b00e000070034001a
:103520008b05e9000804440089844c0001003a003e
:103530000b0020000978a300f7ff32000001eb0028
:1035400002003700828171000a01780080000700c4
:103550000cf0a70001f0a000b40037006420e100e7
:1035600002003a00838f6c00b40033000801be00f3
:103570000200be00ad003700889fbe008a9fbe00db
:103580008c1f7800980007009f00330003866c00b2
:103590006450e100240032006420e1002700320082
:1035a0006150e100220032006120e1002100320080
:1035b0008b854200eb07b1000134b800003ab80037
:1035c0000804420089844a00013ab8000030b8007b
:1035d0008880400009014a000400330000004000d8
:1035e00081804800020149008b05e900c909dd001e
:1035f000830170000100320013002000c814de00b7
:103600004814dd004709de001200b200c808de00e1
:10361000088470004e00070001f0a1000cf0a70024
:1036200001f0a000810037006120e100830032003a
:103630000801be000200be00f7ff37006150e10044
:10364000fcff3a007d003700889fbe008a9fbe00c5
:103650008c1f7800640007006b00330003866c0049
:103660006450e1002e0032006420e100330032009b
:103670006150e1002f0032006120e1003100320092
:1036800085855500eb07b0000900200008042000e4
:10369000050037000804440089844c000a0031000a
:1036a0000603430087834b000001530081815b00c8
:1036b000f8ff33000203be000800a0000804440025
:1036c00089844c00f6ff3900c639dd0083017300a0
:1036d00001003200130020008904d1000884d300c7
:1036e0000998a300050032000800a7000300a0000d
:1036f0008904d1000884d3008b05e8008904d10037
:103700000884d3000001eb000281d2001000070002
:1037100001f0a1000cf0a70001f0a0004300370069
:103720006420e100450032000801be000200be0036
:10373000f7ff37006120e100400032006000b80070
:10374000f3ff37000000200001f82700f0ff3700ea
:1037500081002000618055000b003d000b0020001f
:1037600061fe2f000100e1001d0034008281710024
:10377000610164008904d1000884d3000000e800de
:10378000faff3a007100200061006400030070003d
:10379000020060000900320061044400e0844c0033
:1037a0000988a500050032008b05e8006808e100e3
:1037b00002003a008904d1000884d300f20f2000ef
:1037c0000258e10005003d00c75ddd00f907b200c9
:1037d0008980750008007800000006000bf82700bb
:1037e0008b007800000005000004be0016000700f2
:1037f0000003be000405be000200be001200070068
:10380000844f7500000006000200be006450e10015
:10381000050036006420e100020036000968a300bc
:1038200001003a000800be000160a0004f067800c9
:103830004f05be004f04be0000000600f0ff2f0041
:10384000f1ff2700f9ff3700c70ade00f107b200d9
:10385000f50fb20008003200e1cf42000200320052
:103860000170a00024000500810f700001003200eb
:103870000408050044000500810f700002003a00b2
:10388000140005008502e9000000400081c04800e6
:10389000fcff3b000170a0002400050081037800bc
:1038a000e9ff07000001be006000b8000478a30033
:1038b00013003a006220e10015003e000d003900bf
:1038c0008301d1000281d3008180d3008301d10024
:1038d0000281d3008180d3008301d1000281d30013
:1038e0008180d3000538b000c42add00f300b200a7
:1038f0008381720007f0a70003f0a000000006001b
:10390000f3ff2700f2ff2f006110b900fbff370023
:1039100003ff2700f7ff37008f1fd1006302070066
:103920008f87e9000000e000000006001400fa00a4
:10393000889fbe008a9fbe008c9fbe000004be0010
:103940000205be00680047000a90be000890be0055
:103950007f0207000070a7000bf0a1003043200099
:103960009e02900080825200b0fe2f000028e100ed
:1039700011003d00b0fc2f000028e10015003400cc
:103980001e0990008e0890007e0090000501b00096
:103990000201d1008180d3000080d3008502e800bd
:1039a000fbff3a000b00e000a4023b0060001000a7
:1039b000e0801800a1023700f0ff2f00f1ff270080
:1039c0000b00e0009d023b000100280000002000e9
:1039d0009a0237006000b800980237004f89de0075
:1039e000820178009a02370007f0a200cf02370068
:1039f000809feb002d0207008f87e9000000e000a8
:103a000000000600839f68000100e00002003d0006
:103a100060001000e08018000300e00002003d009c
:103a200060011100e0811900d70007004f00e0009d
:103a300002003b0060001000e0801800000006005b
:103a40002800fa00889fbe008a9fbe008c9fbe009f
:103a500003866b00650207000028a30064003a009b
:103a60000128a30067003a000008a30062003a00a2
:103a70000108a30065003a001e009000be089000f7
:103a800081064000ed3fb100f4805700ee01900048
:103a9000111ab8008e099000311bb8009e099000e1
:103aa000311cb800511db800f485570046000700ce
:103ab000fe0190003a0007008b85e8003e000700f9
:103ac0008e09900040000700ee01900034000700ce
:103ad0008b85e800380007008e0990004000070041
:103ae0009e0990001b18b800890440000a85480010
:103af000fe019000340007008b85e80038000700c5
:103b0000ee019000300007008e0990001b18b800ed
:103b1000890440000a8548000a98a30008003a007a
:103b20000402420085824a0006034b0087834b0053
:103b300008044c0089844c000a054d008d06e900fc
:103b400084827200850273004c3add0085027200a7
:103b50000100320015002000443ade001400b200db
:103b60004538de00cb45dd000b007000c540de00af
:103b7000cb4ddd008b8070004549de00cb55dd006c
:103b80000b017100c551de000d037800e40207004f
:103b900003f0a1000cf0a70003f0a00027023700fb
:103ba0001b18b8008502400006834800e0834b00e4
:103bb00060044c00070037001b18b80006034000e3
:103bc00087834800faff37001b18b80087034000be
:103bd00008844800e0844c0060054d0000000600a9
:103be0001b18b8000804400089844800faff370019
:103bf0000108a3000e023a005800be005801be00a2
:103c0000e3ff37000008a30009023a000904780026
:103c1000f9ff37002800fa00889fbe008a9fbe0087
:103c20008c9fbe0003866b00f00107006400e1007a
:103c3000440032006408e1004a0032006100e10003
:103c4000460032006108e10049003200ec064700fe
:103c50006000b8003d02be003d03be00f486570080
:103c60006011b8003d04be003d05be007d0320008c
:103c70000b0037000000a0008d06e90013003200a1
:103c80000402420085824a0006034b0087834b00f2
:103c90000000400081804800020149008381490002
:103ca0000802520089825a000a035b008b835b0082
:103cb000f0ff3b000802420089824a000a034b00e1
:103cc0008b834b008d06e900edff3a008482720081
:103cd00086827200f707b20087827200010032000c
:103ce000150020001e0490003e0b900006035400b7
:103cf000e63fb0000368a300070032000000a70001
:103d00000500a0008301d1000281d3008180d3008f
:103d10000080d3000603e8008301d1000281d300b4
:103d20008180d3000080d3000002eb000482d20027
:103d30007b02070003f0a1000cf0a70003f0a00035
:103d4000be013700640247006408e100b801320098
:103d50003400be003401be00f6ff37006108e10008
:103d6000b30132006011b8006000b800f1ff370005
:103d700003ff270002002000fbff370002000700be
:103d80000400be00000006006022b8000602200009
:103d90000000d0008180d2000482d2008582d2004f
:103da0000000a0000202520083825a00030031008a
:103db0000202420083824a000000a1000603e900db
:103dc000f3ff3a0000000600881f78000004780026
:103dd0005001be004000be00040040008580480045
:103de0000601490087814900009cbe000294be0084
:103df0000400e1000588e1000690e1000798e10079
:103e000002003100680044001008e8004f04780008
:103e100000000600f4874700889fbe008a9fbe000e
:103e20008c9fbe008e1f78000205be000004be00fd
:103e3000d4b79f00e5b79f00f6b79f0087bf9f00ec
:103e40000000eb00c0b79f00b0b79f00a0b79f0075
:103e500090b79f0080b79f000d042000bfb097006f
:103e60004fb09700000140000000e0000f003d004f
:103e70004f08de0000007100c0b79f009e000700e1
:103e800001003d0012002000a100070001003d00dc
:103e900012002000a6000700b1000700b6000700ce
:103ea0000f004000c8ff0700220037004f08de0067
:103eb00000067100ccb79f008f00070001003d0095
:103ec000120020009200070001003d0012002000b7
:103ed00097000700a20007000fb297009fb297005b
:103ee0002fb39700bfb39700a9000700000052004e
:103ef00081805a0002015b0083815b0080b79f00d4
:103f000091b79f00a2b79f00b3b79f000007eb00d7
:103f10009f0007000020e10001a8e10002b0e100dd
:103f200003b8e100010031001e0020000e00560021
:103f3000c0b79f004fb297000400e00007003500b3
:103f400010002000010020006011b800080470007b
:103f5000898470000a0571008b8571008d06e90067
:103f6000beff3a000400e00003003d0082000700ad
:103f70000f00400094ff07004fa897000000e000ea
:103f800004003a000fb497009fb497002fb5970034
:103f9000bfb59700940007004f0778004f06be009a
:103fa0004f05be004f04be004f01b10000000600e7
:103fb000881f780018002000881f780095ff0700f0
:103fc0008f87e9004f04780000000600801feb0097
:103fd00090ff07008f87e90000000600889fbe0061
:103fe0008a9fbe008c1f78006e00070007003d000e
:103ff00073000700e00f5b00e08f5b0007003d00ef
:10400000320007000006eb00040037003400070010
:1040100002003d002a0007001c002000720007007b
:10402000e3ff07000203be000002be000c00e00038
:1040300001003200220007000400be000601be009d
:104040004f0678004f05be004f04be00000006007a
:10405000889fbe008a9fbe008c1f78005100070019
:1040600005003d0056000700e00f5b00e08f5b009d
:1040700006003d00040037001900070003003d0062
:104080006000b8006011b80010000700560007007b
:10409000ceff07000203be000002be000c00e000dd
:1040a00001003200060007000400be000601be0049
:1040b0004f0678004f05be004f04be00000006000a
:1040c0006000b8006011b800000037000402500022
:1040d00085825800060359008783590000000600b6
:1040e0000006eb00e00f5200e08f5a00e00f5b008b
:1040f000e08f5b00000006000180400090b79f0049
:104100000001eb008fb097000100e0000000060006
:104110000200700090b79f000180400080b79f00b0
:104120000001eb00ffa897000100e000000006007e
:104130000200700080b79f00018040006faa9700c6
:10414000cf20de0001007000f0af9f0004024200ab
:10415000250007004f18de00000272000000060074
:10416000e4af9f000804440089844c000a054d0018
:104170008b854d00000006003fb29700cfb297003c
:104180005fb39700efb3970000fe2f00000006001a
:104190003fb09700cfb097005fb19700efb19700a5
:1041a000000006000205be000004be00e00f500043
:1041b000e08f5800e00f5900e08f59000000060022
:1041c0006000b8006011b8000804500089845800ed
:1041d0000a0559008b8559001c002000e00f520091
:1041e000e08f5a00000006000800be000a01be0071
:1041f00000000600889fbe008a9fbe008c1f7800ca
:104200000205be000004be000006eb00e00f5000f7
:10421000e08f5800e00f5900e08f590007003d0083
:104220006000b8006011b80008045000898458008c
:104230000a0559008b8559001c002000e00f520030
:10424000e08f5a00e00f5b00e08f5b0002003d0052
:104250000f0007000c00a2000800be000a01be000b
:104260005b0107000203be000002be000c00e0007c
:1042700001003200060007000400be000601be0077
:104280004f0678004f05be004f04be000000060038
:104290006000b8006011b800040250008582580028
:1042a000060359008783590000000600889fbe005e
:1042b0008a9fbe008c9fbe000404be000605be009f
:1042c000809fbe00829fbe00630107000406780045
:1042d0000800be000a01be005f01070084067800e6
:1042e0004f03be004f02be008d4f76007fb0970097
:1042f00013003300f0ff2f008b8f6b0006003b0094
:104300000d0666000c00a7000a00370007f0a600a3
:10431000100020000a003700880f5200898f5a00d1
:104320008a0f5b008b8f5b000300390010002000b8
:1043300001003e000000200007f0a7000000ea0096
:104340004f06be004f05be004f04be000000060031
:10435000800078005002be005003be004439de00e9
:10436000f700b200f37f2000030161000900320072
:104370000218e10016003a00850172008301730003
:10438000838173000008200015003a0040002000df
:10439000130037008501720083017300838173006d
:1043a00005003a0004a8be0006a8be0010002000c8
:1043b0000b0037000201e9000402420085824a0036
:1043c00006034b0087834b000748a300f9ff320028
:1043d0000740a00004a8be0006a8be0020002000e0
:1043e00080009800920098000000060068044700d2
:1043f0000294be000094be00fc0447008694be00f8
:104400008494be0009007800d1ff070008007800fe
:10441000cfff070099007800814f70000b003b0030
:104420000800be001e0107004f00b1000300370066
:10443000f3ff2700f2ff2f006110b9004f06be0006
:104440004f05be004f04be000080fa0000000600c9
:10445000889fbe00830478000300e0002c00350034
:1044600003003c000082700004027100260032004c
:1044700036432000c50020008383cf000a003900a6
:104480000541b1008283cf00070039000541b1002a
:104490008183cf00040039000541b1008083cf0043
:1044a000010039000541b10085c353006022b80006
:1044b000120032000a003b00848272006102600038
:1044c0008301d1000281d3008180d3000080d3001a
:1044d0000603e8008743e800f7ff3a0007003700cb
:1044e00000004000818048000201490083814900aa
:1044f0000603e9008743e900f9ff3a008800070056
:1045000009f0a70003f0a0004f04be000000060061
:1045100060001000e080180060011900e0811900bf
:10452000d3ff3b00033e2c00f7ff37002800fa00c2
:10453000889fbe008a9fbe008c9fbe000706780041
:10454000878669000c003b0003047800870478002c
:1045500008f0a10009f0a100840f5000858f5800d9
:10456000860f5900890f5c00030033000cf0a20095
:1045700001003a000cf0a1009cff07006400e1007c
:104580005f003200780147006408e10061003200fa
:104590006c014700748557003200be001201be0056
:1045a0003a04be001a05be001e039000be0a900029
:1045b0008503530006003d000004fd008104fd005a
:1045c0000205fd008305fd008703ea00050378006e
:1045d0000df8a3000400320060041400e0841c0005
:1045e00060051d00e0851d006022b8007d032000ed
:1045f0000d38e1008006eb000b0039004433dd008c
:10460000f300b20083017300390037008482720026
:104610000d027800e10664008b85d1000a85d30085
:104620008984d3000884d3008703e900f7ff3b00a7
:1046300008004000898048000a0149008b81490038
:1046400004003b0060001000e080180060011900c9
:10465000e08119000358a300090032008d82720026
:1046600084827200610260008301d1000281d30064
:104670008180d3000080d3000603e8001b003700d0
:104680000348a30017003a000600e00017003400ba
:104690000603e9000d00a3000000480081804800e7
:1046a00002014900838149000348a3000f003a003a
:1046b0000600e000090034000603e90000004000a5
:1046c00081804800020149008381490001003a00cd
:1046d0000003eb000348a300f5ff32006022b8009e
:1046e0000200370084827200618266000c000700bd
:1046f00003f0a1000cf0a70003f0a0004fff37006b
:10470000640147006408e10002003a000df8a300cc
:1047100047ff3a003200be001201be0047ff3700db
:104720001800200057002000080453000d003d0031
:104730000600200097fc2f000740e1001e00340017
:1047400084827200610260008301d1000281d30083
:104750008180d3000080d3000804e800f8ff3a000d
:104760004700200061046000050474000404640034
:104770000d00320061004000e08048006001490007
:10478000e081490003b8a500070032000603e800f5
:104790006538e10004003a008301d1000281d300b2
:1047a0008180d3000080d300f87f20000830e10032
:1047b00003003500080378006000b8006011b800fd
:1047c0004433dd00f300b2008301730000000600f3
:1047d000889fbe008a9fbe008c9fbe000404b80064
:1047e0000506b8008904460060854e000606b8003c
:1047f0000a054600e0854e000706b8008b05460016
:10480000040eb800890446000a854e00e0854d007c
:10481000050eb8000a0546008b854e00060eb8004e
:104820008b0546000416b8000a0546008b854e002d
:104830000516b8008b054600041eb8008b0546001f
:104840000800be000a01be004f06be004f05be00b4
:104850004f04be000000060005ff2700058261002e
:10486000070032000428e1000100320024000500a6
:104870000600070001003a00440005000408050096
:1048800002000700f9ff3a00140005006f82610082
:10489000810270008502710085027200000006002e
:1048a000e48240001078a300070032006402400058
:1048b0001178a3003400be001401be0004003200d1
:1048c0000330a700000006003500be001501be0041
:1048d0000330a00000000600a210880060108800cd
:0848e0007110880000000600c1
:020000040000fa
:0200000401f009
:04000000e7ff000016
:020000040000fa
:0200000401f009
:04000400ff7f00007a
:020000040000fa
:0200000401f009
:04000800fcff0000f9
:020000040000fa
:0200000401f009
:04001400ffff0000ea
:020000040000fa
:100008009c0100009c0100009c0100009c01000074
:100018009c0100009c0100009c0100009c01000064
:100028009c0100009c0100009c0100009c01000054
:100038009c0100009c0100009c0100009c01000044
:100048009c0100009c0100009c0100009c01000034
:100058009c0100009c0100009c0100009c01000024
:100068009c0100009c0100009c0100009c01000014
:100078009c0100009c0100009c0100009c01000004
:100088009c0100009c0100009c0100009c010000f4
:100098009c0100009c0100009c0100009c010000e4
:1000a8009c0100009c0100009c0100009c010000d4
:1000b8009c0100009c0100009c0100009c010000c4
:1000c8009c0100009c0100009c0100009c010000b4
:1000d8009c0100009c0100009c0100009c010000a4
:1000e8009c0100009c0100009c0100009c01000094
:0800f8009c0100009c010000c6
:020000040000fa
:100108009c0100009c0100009c0100009c01000073
:100118009c0100009c0100009c0100009c01000063
:100128009c0100009c0100009c0100009c01000053
:100138009c0100009c0100009c0100009c01000043
:100148009c0100009c0100009c0100009c01000033
:100158009c0100009c0100009c0100009c01000023
:100168009c0100009c0100009c0100009c01000013
:100178009c0100009c0100009c0100009c01000003
:100188009c0100009c0100009c0100009c010000f3
:100198009c0100009c0100009c0100009c010000e3
:1001a8009c0100009c0100009c0100009c010000d3
:1001b8009c0100009c0100009c0100009c010000c3
:1001c8009c0100009c0100009c0100009c010000b3
:1001d8009c0100009c0100009c0100009c010000a3
:1001e8009c0100009c0100009c0100009c01000093
:0801f8009c0100009c010000c5
:020000040000fa
:1048e8000a0a000009090000092000002f2f000013
:1048f8002f4800006f6c000061200000486f000026
:104908006e640000752c0000204300004c4f00002e
:10491800434b0000206500006e2000004473000037
:104928007069000063330000306600003430000016
:10493800313300002f2f00002f0d00000a00000067
:1049480056650000616d00006f730000206500006f
:104958006c200000766100006c6f0000722000007f
:104968006465000020430000535700005f460000c4
:10497800534300004d5f00004f460000463a0000d8
:1049880020250000580d00000a00000056650000b0
:10499800616d00006f730000206500006c2000004e
:1049a800766100006c6f00007220000064650000f2
:1049b80020580000545f0000504c00004c310000ab
:1049c800363a000020250000580d00000a000000bb
:1049d80056650000616d00006f73000020650000df
:1049e8006c200000766100006c6f000072200000ef
:1049f8006465000020570000445400005f4f000029
:104a0800464600003a200000255800000d0a000024
:104a180000560000656100006d6f00007320000003
:104a2800656c000020760000616c00006f72000069
:104a380020640000652000004d4300004c52000037
:104a48005f4500004e3a000020250000580d000088
:104a58000a00000056650000616d00006f730000d9
:104a6800206500006c200000766100006c6f00007b
:104a780072200000646500002050000057520000ba
:104a8800545f00004f460000463a00002025000011
:104a9800580d00000a00000056650000616d000016
:104aa8006f730000206500006c2000007661000034
:104ab8006c6f000072200000646500002043000055
:104ac8004f440000455f0000505200004f54000062
:104ad8005f4f0000464600003a20000025580000bd
:104ae8000d0a00000055000041520000545f00000c
:104af800454e00003a200000255800000d0a00002d
:104b08000055000041520000545f00004449000075
:104b1800533a000020250000580d00000a0000004c
:104b280055410000525400005f310000535400000a
:104b38004f50000042490000543a00002025000070
:104b4800580d00000a0000000a550000314d000011
:104b58004f44000045760000616c00007565000058
:104b68003a200000255800000d0a000000550000fa
:104b78003153000054410000766100006c7500005c
:104b8800653a000020250000580d00000a000000ca
:104b98004252000047760000616c00007565000015
:104ba8003a200000256400000d0a00000a000000f9
:104bb800426100007564000020520000617400002a
:104bc800653d000020250000660d00000a00000079
:104bd80045520000524f0000523d000020250000c1
:104be800312e00003166000000200000252500005d
:104bf8000d0a000000280000566500007220000021
:104c080070610000672e0000203400003936000073
:104c18002f3700003630000020640000656c00006b
:104c28002064000073500000494300003330000046
:104c380046200000466100006d6900006c6c0000b1
:104c4800792000005265000066650000726500006a
:104c58006e630000652000004d6100006e75000065
:104c6800616c0000290d00000a00000023200000ec
:104c780054430000593a0000202500002e3100005e
:104c8800660d00000a0a0000005400006965000073
:104c98006d7000006f200000656a00006563000009
:104ca80075630000696f00006e3d0000253200004a
:084cb8002e3700006600000029
:020000040000fa
:104cc0000400fa00008fbe009e00780080bb200028
:104cd0000009b8001e0078006000b90003027800e7
:104ce000000242009e00900080bb20000088b900b6
:104cf0000002420084017800028fbe000080eb00b9
:104d00008080eb001e0f40005e9748000080eb00a3
:104d10008080eb00be0f1000ae8f1800f7ff3a0046
:104d20000080fa00000006000200fa00000f780080
:104d30001e0078007e00b9004200de00000f7800ff
:104d40001e0fe9000080eb009e0f1000fcff3a00f0
:104d50000080fa00000006001e00fa00881f78009c
:104d600000f62d00400f9800d0792f00300f9800ea
:104d700000022000200f98002e099000be0890002d
:104d80004e089000d4fe07006ced07002007980045
:104d90003107980040472a006aed07000000000034
:104da0000080eb00801f7800404a2a00801f7800b6
:104db0007eed0700e487570070fe2f00801f78000b
:104dc000a04c2a00801f780078ed0700e487570088
:104dd000f0ff2700801f7800c04e2a00801f780057
:104de00072ed0700e48757000080eb00801f780019
:104df000d0502a00801f78006ced0700e487570030
:104e0000c0ff2f00801f7800e0522a00801f78002a
:104e100066ed0700e48757000080eb00801f7800f4
:104e200000552a00801f780060ed0700e4875700d6
:104e300070fe2f00801f780070572a00801f7800b6
:104e40005aed0700e487570070fe2700801f7800a6
:104e500050582a00801f780054ed0700e48757005f
:104e6000e0ff2f00801f780040592a00801f780043
:104e70004eed0700e48757004e089000801f780031
:104e8000805a2a00801f780048ed0700e487570009
:104e9000be089000811f7800b05b2a00801f780058
:104ea00042ed0700e48757002e099000821f78002a
:104eb000c05c2a00801f78003ced0700e4875700a3
:104ec0002e0890000004e8006140b90021f90700b5
:104ed000500f9800610f98000800e00007003d00a7
:104ee00002002000037824005e089000ee08900085
:104ef00044f90700500f9800610f9800020020004d
:104f0000031824005e089000ee0890009af907004c
:104f10000001be00001c2e0041be2400caf907009b
:104f2000000f9800110f98000e0890009e08900046
:104f3000809fbe00c05d2a00801f78001bed070027
:104f4000e687570002002c00a37524000e0890008d
:104f50009e0890002af9070002002c00a375240087
:104f6000b9f9070002002000832c240082f9070011
:104f700060079800710798006e019000fe01900094
:104f8000829fbe00c05e2a00801f780007ed0700e8
:104f9000e6875700905f2a00801f780003ed070026
:104fa0008f87e900f05f2a00801f7800ffec070080
:104fb0008f87e900e1ec0700008fbe002e00900013
:104fc000be0090003e011000ae8118000200be003d
:104fd000e0f80700020020008319240008f9070008
:104fe000004088001140880000408000114080008f
:104ff000809fbe00a0632a00801f7800ebec0700b2
:10500000e68757000040800011408000021c2e00ff
:1050100043be24008cf90700400798005107980010
:105020004e009000de009000809fbe0090642a0039
:10503000801f7800ddec0700e6875700ffff370090
:020000040000fa
:105040000008000004000000000000000408000048
:10505000880000000200000064083c0008140800fa
:105060000000000000000000000000000002080036
:1050700002023a00083b08003a083a00083a0800e1
:105080003a082a00080000000000000000000000ac
:105090000000000000000000000000000000000010
:1050a00000000200080101006208630008620800b5
:1050b0006208620008620800520800000000000058
:1050c00000000000000000000000000000000000e0
:1050d000000000000000000001000000008a08003d
:1050e0008b088a00088a08008a088a00087a080063
:1050f00000000000000000000000000000000000b0
:10510000000000000000000000000000000000009f
:105110002809000012000000020000000100020047
:10512000000400000800100000000000202b2d00eb
:10513000233000003a0900000800000002000000cf
:10514000686a6c00747a4c0000000000420900009c
:105150000600000002000000040000000000000043
:105160004809000002000000000000008c08000058
:1051700048000000020000000000000000000000e5
:105180002440000000000000000059004000000022
:105190000000000088c34000000000000084d70029
:1051a0009741000080e0370079c3410043176e004b
:1051b00005b5b500b8934600f5f93f00e9034f0087
:1051c000384d32001d30f900487782005a3cbf004c
:1051d000737fdd004f157500d40800003200000019
:1051e000020000004e414e00006e61006e0049005a
:1051f0004e460000696e66000030310032333400e4
:105200003536370038396100626364006566000036
:1052100030313200333435003637380039414200fe
:10522000434445004600000006090000220000003b
:105230000200000030313200333435003637380098
:10524000396162006364650066003000313233000a
:105250003435360037383900414243004445460072
:10526000000000004a0900000200000002000000e7
:10527000000000004c0900000200000002000000d5
:10528000300000004e090000020000000200000093
:1052900000000000500900000200000002000000b1
:1052a00001000000520900000200000000000000a0
:0452b00000000000fa
:00000001FF
